:100000000C9436000C945E000C945E000C945E0020
:100010000C945E000C945E000C945E000C945E00E8
:100020000C945E000C945E000C945E000C945E00D8
:100030000C945E000C945E000C945E000C945E00C8
:100040000C945E000C945E000C945E000C945E00B8
:100050000C945E000C945E000C945E000C945E00A8
:100060000C945E000C945E00A001AD0111241FBE33
:10007000CFEFD8E0DEBFCDBF11E0A0E0B1E0ECE50E
:10008000FFE002C005900D92A232B107D9F721E03E
:10009000A2E2B1E001C01D92A732B207E1F710E081
:1000A000C5E3D0E004C02197FE010E942003C433C1
:1000B000D107C9F70E9466010C94A1070C940000B7
:1000C000CF93DF93CDB7DEB72C970FB6F894DEBF92
:1000D0000FBECDBF98878F83809100019091010161
:1000E0002F813885A901481B590BCA0101969A83B3
:1000F0008983209102013091030189819A81B9019C
:100100000E94D602CB019C838B838F8198852B81A3
:100110003C81B9010E94D602CB019E838D838D81E3
:100120009E8199231CF480E090E010C08091020130
:10013000909103012D813E81821793072CF48091C9
:1001400002019091030102C080E090E02C960FB66E
:10015000F894DEBF0FBECDBFDF91CF910895CF934E
:10016000DF93CDB7DEB76CE071E082E291E00E94F0
:100170002302DF91CF910895CF93DF9300D000D079
:10018000CDB7DEB78FEF9FEFA7E0B0E089839A830A
:10019000AB83BC8389819A81AB81BC819C01AD0119
:1001A000215031094109510929833A834B835C83EA
:1001B00021E0892B8A2B8B2B09F420E0222351F795
:1001C0000F900F900F900F90DF91CF910895CF92E5
:1001D000DF92EF92FF92CF93DF93CDB7DEB72E97EA
:1001E0000FB6F894DEBF0FBECDBF83E291E00E9450
:1001F00084029A83898389819A81092E000CAA0B33
:10020000BB0BBC01CD010E94D0036B017C0180912E
:10021000040190910501092E000CAA0BBB0BBC0137
:10022000CD010E94D003DC01CB0120E030EC4FE790
:1002300054E4BC01CD010E942603DC01CB019C01EA
:10024000AD01C701B6010E945C04DC01CB01BC0119
:10025000CD010E949803DC01CB019C838B838C81B0
:100260008F938B818F9383E191E0892F8F9383E12B
:1002700091E08F93CE010596292F2F938F930E94A3
:10028000C9040F900F900F900F900F900F90CE0118
:100290000596BC0182E291E00E9423022E960FB6E1
:1002A000F894DEBF0FBECDBFDF91CF91FF90EF90EE
:1002B000DF90CF900895CF93DF93CDB7DEB70E9444
:1002C000E7000E94BC00DF91CF910895CF93DF93A8
:1002D000CDB7DEB70E945B01FDCFCF93DF9300D097
:1002E00000D0CDB7DEB79A8389837C836B83898105
:1002F0009A81019791F48B819C81019671F440E879
:1003000055E260E070E082E291E00E94BA0160E0B4
:1003100070E083E291E00E94580289819A81892BE2
:1003200041F48B819C81019621F482E291E00E944C
:10033000F4010F900F900F900F90DF91CF910895DF
:10034000CF93DF93CDB7DEB76FEF7FEF81E090E023
:100350000E946D01DF91CF910895CF93DF93CDB7C8
:10036000DEB76FEF7FEF80E090E00E946D01DF91DC
:10037000CF9108950F931F93CF93DF93CDB7DEB73F
:100380002A970FB6F894DEBF0FBECDBF9A8389833C
:100390004B835C836D837E8304EC10E080E492E405
:1003A000AFE0B0E02B813C814D815E81BC01CD018D
:1003B0000E94EA02DA01C901F8019183808381EC8D
:1003C00090E028E0FC01208382EC90E026E0FC0134
:1003D00020832A960FB6F894DEBF0FBECDBFDF9103
:1003E000CF911F910F910895CF93DF9300D0CDB798
:1003F000DEB79A8389830F900F90DF91CF91089594
:10040000CF93DF9300D01F92CDB7DEB79A83898355
:100410006B83000080EC90E0FC018081882F90E0ED
:100420008072992721E0892B09F020E0222391F79F
:1004300086EC90E02B81FC0120830F900F900F90B1
:10044000DF91CF910895CF93DF9300D000D0CDB747
:10045000DEB79A8389837C836B838B819C81FC01CB
:10046000208189819A81622F0E9400028B819C8168
:1004700001969C838B838B819C81FC01908181E020
:10048000992309F480E0882341F70F900F900F9093
:100490000F90DF91CF910895CF93DF9300D0CDB728
:1004A000DEB79A8389830F900F90DF91CF910895E3
:1004B000CF93DF9300D000D0CDB7DEB79A83898386
:1004C0007C836B8389819A812B813C81FC01318300
:1004D00020838CE790E029813A81F90120813181E4
:1004E0002F702064FC0120838AE790E026E8FC015D
:1004F00020838BE790E0FC0110820F900F900F900B
:100500000F90DF91CF910895CF93DF9300D0CDB7B7
:10051000DEB79A8389838CE790E02CE730E0F9011D
:100520002081422F407F29813A81F9012081318148
:100530002F70242BFC0120838AE790E02AE730E02B
:10054000F90120812064FC01208300008AE790E00B
:10055000FC018081882F90E08074992721E0892B0D
:1005600009F420E0222391F78AE790E02AE730E0BF
:10057000F90120812064FC01208300008AE790E0DB
:10058000FC018081882F90E08074992721E0892BDD
:1005900009F420E0222391F788E790E0FC018081B4
:1005A00091810F900F90DF91CF91089597FB072EC7
:1005B00016F4009407D077FD09D00E940C0307FCC5
:1005C00005D03EF4909581959F4F08957095619563
:1005D0007F4F0895A1E21A2EAA1BBB1BFD010DC07F
:1005E000AA1FBB1FEE1FFF1FA217B307E407F507E3
:1005F00020F0A21BB30BE40BF50B661F771F881FBF
:10060000991F1A9469F760957095809590959B0154
:10061000AC01BD01CF010895AA1BBB1B51E107C06E
:10062000AA1FBB1FA617B70710F0A61BB70B881F82
:10063000991F5A95A9F780959095BC01CD01089511
:10064000EE0FFF1F0590F491E02D09940E943A03EC
:100650000C9422040E941B0458F00E94140440F0E1
:1006600029F45F3F29F00C940B0451110C945604AB
:100670000C9411040E94330468F39923B1F35523B9
:1006800091F3951B550BBB27AA27621773078407A5
:1006900038F09F5F5F4F220F331F441FAA1FA9F33B
:1006A00035D00E2E3AF0E0E832D091505040E69529
:1006B000001CCAF72BD0FE2F29D0660F771F881F8A
:1006C000BB1F261737074807AB07B0E809F0BB0B7D
:1006D000802DBF01FF2793585F4F3AF09E3F510591
:1006E00078F00C940B040C9456045F3FE4F3983EAE
:1006F000D4F3869577956795B795F7959F5FC9F77A
:10070000880F911D9695879597F90895E1E0660FFA
:10071000771F881FBB1F621773078407BA0720F073
:10072000621B730B840BBA0BEE1F88F7E0950895DC
:100730000E949F036894B1110C94560408950E947E
:100740003B0488F09F5798F0B92F9927B751B0F024
:10075000E1F0660F771F881F991F1AF0BA95C9F745
:1007600014C0B13091F00E945504B1E008950C948A
:100770005504672F782F8827B85F39F0B93FCCF33D
:10078000869577956795B395D9F73EF490958095C2
:10079000709561957F4F8F4F9F4F0895E89409C0E2
:1007A00097FB3EF490958095709561957F4F8F4FA4
:1007B0009F4F9923A9F0F92F96E9BB279395F695BA
:1007C000879577956795B795F111F8CFFAF4BB0F38
:1007D00011F460FF1BC06F5F7F4F8F4F9F4F16C09C
:1007E000882311F096E911C0772321F09EE8872F26
:1007F000762F05C0662371F096E8862F70E060E0E2
:100800002AF09A95660F771F881FDAF7880F96955A
:10081000879597F9089597F99F6780E870E060E001
:1008200008959FEF80EC089500240A941616170689
:1008300018060906089500240A94121613061406D1
:1008400005060895092E0394000C11F4882352F034
:10085000BB0F40F4BF2B11F460FF04C06F5F7F4FEC
:100860008F4F9F4F089557FD9058440F551F59F0D3
:100870005F3F71F04795880F97FB991F61F09F3F8D
:1008800079F087950895121613061406551FF2CFB6
:100890004695F1DF08C0161617061806991FF1CF06
:1008A00086957105610508940895E894BB2766272D
:1008B0007727CB0197F908950E946F040C942204C6
:1008C0000E94140438F00E941B0420F0952311F0BC
:1008D0000C940B040C94110411240C9456040E94E3
:1008E000330470F3959FC1F3950F50E0551F629F3D
:1008F000F001729FBB27F00DB11D639FAA27F00D79
:10090000B11DAA1F649F6627B00DA11D661F829F9F
:100910002227B00DA11D621F739FB00DA11D621F84
:10092000839FA00D611D221F749F3327A00D611DA1
:10093000231F849F600D211D822F762F6A2F112483
:100940009F5750409AF0F1F088234AF0EE0FFF1FB6
:10095000BB1F661F771F881F91505040A9F79E3F0D
:10096000510580F00C940B040C9456045F3FE4F3A3
:10097000983ED4F3869577956795B795F795E79563
:100980009F5FC1F7FE2B880F911D9695879597F96C
:100990000895AEE0B0E0EFECF4E00C9478070D8938
:1009A0001E8986E08C831A8309838FEF9FE79E83DD
:1009B0008D83AE01475E5F4F6F89788DCE010196C2
:1009C0000E94EC042F813885F801E20FF31F10829A
:1009D0002E96E4E00C949407ACE0B0E0E2EFF4E093
:1009E0000C946A077C016B018A01FC011782168254
:1009F000838181FFBDC1CE0101964C01F701938136
:100A0000F60193FD859193FF81916F01882309F48D
:100A1000ABC1853239F493FD859193FF81916F01CC
:100A2000853229F4B70190E00E94D406E7CF512C1B
:100A3000312C20E02032A0F48B3269F030F4803287
:100A400059F0833269F420612CC08D3239F0803343
:100A500039F4216026C02260246023C0286021C0B0
:100A600027FD27C030ED380F3A3078F426FF06C056
:100A7000FAE05F9E300D1124532E13C08AE0389E99
:100A8000300D1124332E20620CC08E3221F426FD4D
:100A90006BC1206406C08C3611F4206802C0883611
:100AA00041F4F60193FD859193FF81916F018111CE
:100AB000C1CF982F9F7D9554933028F40C5F1F4F22
:100AC000FFE3F9830DC0833631F0833771F083354E
:100AD00009F05BC022C0F801808189830E5F1F4F3F
:100AE00044244394512C540115C03801F2E06F0E98
:100AF000711CF801A080B18026FF03C0652D70E055
:100B000002C06FEF7FEFC5012C870E94C9062C0140
:100B100083012C852F77222E17C03801F2E06F0E4B
:100B2000711CF801A080B18026FF03C0652D70E024
:100B300002C06FEF7FEFC5012C870E94BE062C011B
:100B40002C852068222E830123FC1BC0832D90E07E
:100B500048165906B0F4B70180E290E00E94D4062E
:100B60003A94F4CFF50127FC859127FE81915F012E
:100B7000B70190E00E94D40631103A94F1E04F1A88
:100B800051084114510471F7E5C0843611F08936DB
:100B900039F5F80127FF07C0608171818281938157
:100BA0000C5F1F4F08C060817181072E000C880BFD
:100BB000990B0E5F1F4F2F76722E97FF09C09095ED
:100BC0008095709561957F4F8F4F9F4F2068722E53
:100BD0002AE030E0A4010E940C07A82EA81844C007
:100BE000853729F42F7EB22E2AE030E025C0F22F7F
:100BF000F97FBF2E8F36C1F018F4883579F0B4C074
:100C0000803719F0883721F0AFC02F2F2061B22E26
:100C1000B4FE0DC08B2D8460B82E09C024FF0AC01D
:100C20009F2F9660B92E06C028E030E005C020E175
:100C300030E002C020E132E0F801B7FE07C0608179
:100C40007181828193810C5F1F4F06C06081718129
:100C500080E090E00E5F1F4FA4010E940C07A82EB9
:100C6000A818FB2DFF777F2E76FE0BC0372D3E7F19
:100C7000A51450F474FE0AC072FC08C0372D3E7EE5
:100C800005C0BA2C372D03C0BA2C01C0B52C34FFD7
:100C90000DC0FE01EA0DF11D8081803311F4397E13
:100CA00009C032FF06C0B394B39404C0832F867882
:100CB00009F0B39433FD13C030FF06C05A2CB314AF
:100CC00018F4530C5B18B32CB31468F4B70180E22A
:100CD00090E03C870E94D406B3943C85F5CFB314D2
:100CE00010F43B1801C0312C34FF12C0B70180E36F
:100CF00090E03C870E94D4063C8532FF17C031FD4E
:100D000003C088E790E002C088E590E0B7010CC01E
:100D1000832F867859F031FF02C08BE201C080E258
:100D200037FD8DE2B70190E00E94D406A51438F497
:100D3000B70180E390E00E94D4065A94F7CFAA94BA
:100D4000F401EA0DF11D8081B70190E00E94D40604
:100D5000A110F5CF332009F451CEB70180E290E025
:100D60000E94D4063A94F6CFF7018681978102C09B
:100D70008FEF9FEF2C96E2E10C948607FC01059023
:100D8000615070400110D8F7809590958E0F9F1F8D
:100D90000895FC016150704001900110D8F78095D2
:100DA00090958E0F9F1F08950F931F93CF93DF93FE
:100DB000FB01238121FD03C08FEF9FEF28C022FF9D
:100DC00016C046815781248135814217530744F468
:100DD000A081B1819D012F5F3F4F318320838C9390
:100DE000268137812F5F3F4F3783268310C0EB0169
:100DF000092F182F0084F185E02D0995892BE1F644
:100E00008E819F8101969F838E83812F902FDF910A
:100E1000CF911F910F910895FA01AA27283051F11F
:100E2000203181F1E8946F936E7F6E5F7F4F8F4F1B
:100E30009F4FAF4FB1E03ED0B4E03CD0670F781F7A
:100E4000891F9A1FA11D680F791F8A1F911DA11D5F
:100E50006A0F711D811D911DA11D20D009F4689498
:100E60003F912AE0269F11243019305D3193DEF640
:100E7000CF010895462F4770405D4193B3E00FD0F6
:100E8000C9F7F6CF462F4F70405D4A3318F0495DE1
:100E900031FD4052419302D0A9F7EACFB4E0A695C4
:100EA0009795879577956795BA95C9F700976105E6
:100EB000710508959B01AC010A2E0694579547953C
:100EC00037952795BA95C9F7620F731F841F951F31
:100ED000A01D08952F923F924F925F926F927F9242
:100EE0008F929F92AF92BF92CF92DF92EF92FF923A
:100EF0000F931F93CF93DF93CDB7DEB7CA1BDB0BE6
:100F00000FB6F894DEBF0FBECDBF09942A8839888A
:100F100048885F846E847D848C849B84AA84B98491
:100F2000C884DF80EE80FD800C811B81AA81B9819D
:100F3000CE0FD11D0FB6F894DEBF0FBECDBFED01B1
:100F4000089510E0C5E3D0E004C0FE010E94200334
:0C0F50002196C633D107C9F7F894FFCFF3
:100F5C00FF03FF00881323002600290053657475D6
:100F6C00700A006D696C69766F6C7473202025644F
:020F7C000A0069
:00000001FF
