:100000000C9434000C9449000C9449000C94490061
:100010000C9449000C9449000C9449000C9449003C
:100020000C9449000C9449000C9449000C9449002C
:100030000C9449000C9449000C9449000C9449001C
:100040000C9449000C9449000C9449000C9449000C
:100050000C9449000C9449000C9449000C944900FC
:100060000C9449000C94490011241FBECFEFD8E036
:10007000DEBFCDBF11E0A0E0B1E0E4EBF1E002C0F3
:1000800005900D92A830B107D9F70E94CF000C94CB
:10009000D8000C940000CF93DF93CDB7DEB78091EA
:1000A000020190910301409100015091010121E072
:1000B00030E002C0220F331F4A95E2F72095FC0181
:1000C0002083DF91CF910895CF93DF9300D000D0AC
:1000D000CDB7DEB78FEF9FEFA7E0B0E089839A83BB
:1000E000AB83BC8389819A81AB81BC819C01AD01CA
:1000F000215031094109510929833A834B835C839B
:1001000021E0892B8A2B8B2B09F420E0222351F745
:100110000F900F900F900F90DF91CF910895CF9394
:10012000DF93CDB7DEB78091060190910701409132
:1001300000015091010121E030E002C0220F331F85
:100140004A95E2F7FC012083DF91CF910895CF9388
:10015000DF93CDB7DEB78091060190910701409102
:1001600000015091010121E030E002C0220F331F55
:100170004A95E2F72095FC012083DF91CF91089505
:10018000CF93DF93CDB7DEB70E948F000E9464004B
:100190000E94A7000E946400DF91CF910895CF9341
:1001A000DF93CDB7DEB70E944B000E94C000FDCFA9
:0401B000F894FFCFF1
:0801B4000500240023002500D2
:00000001FF
