:100000000C9436000C945E000C945E000C945E0020
:100010000C945E000C945E000C945E000C945E00E8
:100020000C945E000C945E000C945E000C945E00D8
:100030000C945E000C945E000C945E000C945E00C8
:100040000C945E000C945E000C945E000C945E00B8
:100050000C945E000C945E000C945E000C945E00A8
:100060000C945E000C945E007401810111241FBE8B
:10007000CFEFD8E0DEBFCDBF11E0A0E0B1E0E4E516
:10008000FDE002C005900D92A231B107D9F721E041
:10009000A2E1B1E001C01D92AF33B207E1F710E079
:1000A000C5E3D0E004C02197FE010E94BF03C43322
:1000B000D107C9F70E9438010C949D060C940000EA
:1000C000CF93DF93CDB7DEB766E071E082E191E0D8
:1000D0000E94F701DF91CF9108952F923F924F92A6
:1000E0005F926F927F928F929F92AF92BF92CF92C8
:1000F000DF92EF92FF920F931F93CF93DF93CDB7D1
:10010000DEB760970FB6F894DEBF0FBECDBF80EAB2
:10011000898386E88A8381E08B831C821D821E820C
:100120001F82188683E191E00E94F602A22EB32E70
:10013000C42ED52EE62EF72E082F192F2A2D3B2D53
:100140004C2D5D2D6E2D7F2D802F912FA980BA8093
:10015000CB80DC80ED80FE800F8118850E94A1039A
:10016000A22EB32EC42ED52EE62EF72E082F192F31
:10017000A986BA86CB86DC86ED86FE860F87188B2D
:10018000000083E191E00E94F602A22EB32EC42E5D
:10019000D52EE62EF72E082F192FE1E029843A8478
:1001A0004B845C846D847E848F8498882A2D3B2DBB
:1001B0004C2D5D2D6E2D7F2D802F912FA22CB32CD9
:1001C000C42CD52CE62CF72C082D192D0E94B60333
:1001D00008F0E0E0EE23A9F660960FB6F894DEBFD3
:1001E0000FBECDBFDF91CF911F910F91FF90EF9088
:1001F000DF90CF90BF90AF909F908F907F906F9047
:100200005F904F903F902F900895CF93DF93CDB79D
:10021000DEB780911B0190911C019C012F5F3F4F25
:1002200030931C0120931B01292F2F938F938DE076
:1002300091E0892F8F938DE091E08F938DE191E094
:10024000892F8F938DE191E08F930E94C5030F90CA
:100250000F900F900F900F900F906DE171E082E181
:1002600091E00E94F7010E946D00DF91CF91089507
:10027000CF93DF93CDB7DEB70E940501FDCFCF93BB
:10028000DF9300D000D0CDB7DEB79A8389837C831B
:100290006B8389819A81019781F48B819C8101967E
:1002A00061F440E855E260E070E082E191E00E9494
:1002B0008E0183E191E00E94AA0289819A81892BB3
:1002C00061F48B819C81019641F483E191E00E946D
:1002D000E20282E191E00E94C8010F900F900F901E
:1002E0000F90DF91CF910895CF93DF93CDB7DEB715
:1002F0006FEF7FEF81E090E00E943F01DF91CF91AF
:100300000895CF93DF93CDB7DEB76FEF7FEF80E037
:1003100090E00E943F01DF91CF9108950F931F93CA
:10032000CF93DF93CDB7DEB72A970FB6F894DEBF31
:100330000FBECDBF9A8389834B835C836D837E839D
:1003400004EC10E080E492E4AFE0B0E02B813C816B
:100350004D815E81BC01CD010E947F03DA01C9019C
:10036000F8019183808381EC90E028E0FC012083F8
:1003700082EC90E026E0FC0120832A960FB6F894E8
:10038000DEBF0FBECDBFDF91CF911F910F910895BA
:10039000CF93DF9300D0CDB7DEB79A8389830F90D8
:1003A0000F90DF91CF910895CF93DF9300D01F92EC
:1003B000CDB7DEB79A8389836B83000080EC90E031
:1003C000FC018081882F90E08072992721E0892BA1
:1003D00009F020E0222391F786EC90E02B81FC01CC
:1003E00020830F900F900F90DF91CF910895CF93BE
:1003F000DF9300D000D0CDB7DEB79A8389837C83AA
:100400006B838B819C81FC01208189819A81622F81
:100410000E94D4018B819C8101969C838B838B816C
:100420009C81FC01908181E0992309F480E088237C
:1004300041F70F900F900F900F90DF91CF9108959B
:10044000CF93DF9300D0CDB7DEB79A8389830F9027
:100450000F90DF91CF910895CF93DF9300D000D01C
:10046000CDB7DEB79A8389837C836B8389819A8138
:100470002B813C81FC01318320838CE790E0298132
:100480003A81F901208131812F702064FC012083A1
:100490008AE790E026E8FC0120838BE790E0FC01EE
:1004A00010820F900F900F900F90DF91CF910895D1
:1004B000CF93DF9300D0CDB7DEB79A8389838CE7E3
:1004C00090E02CE730E0F9012081422F407F298124
:1004D0003A81F901208131812F70242BFC01208386
:1004E0008AE790E02AE730E0F90120812064FC01EE
:1004F000208300008AE790E0FC018081882F90E053
:100500008074992721E0892B09F420E0222391F7B8
:100510008AE790E02AE730E0F90120812064FC01BD
:10052000208300008AE790E0FC018081882F90E022
:100530008074992721E0892B09F420E0222391F788
:1005400088E790E0FC01808191810F900F90DF910E
:10055000CF910895CF93DF9300D0CDB7DEB79A83C4
:10056000898389819A8190933E0180933D0189819D
:100570009A81FC011082FC011182FC011282FC01B3
:100580001382FC011482FC011582FC011682FC011D
:10059000178285E490E022E0FC01208384E490E06F
:1005A00022E0FC01208387E490E027ECFC0120831B
:1005B0008EE690E022E0FC0120830F900F90DF9107
:1005C000CF910895CF93DF9300D0CDB7DEB79A8354
:1005D000898384E490E0FC01108285E490E0FC01D2
:1005E00010820F900F90DF91CF910895AF92BF923C
:1005F000CF92DF92EF92FF920F931F93CF93DF93EF
:1006000000D0CDB7DEB79A838983E981FA81208152
:100610003181428153816481758186819781A22EC7
:10062000B32EC42ED52EE62EF72E082F192F2A2DE5
:100630003B2D4C2D5D2D6E2D7F2D802F912F0F90FA
:100640000F90DF91CF911F910F91FF90EF90DF906E
:10065000CF90BF90AF900895AF92BF92CF92DF92AC
:10066000EF92FF920F931F93CF93DF9300D0CDB7FC
:10067000DEB79A83898389819A81FC01A080FC017D
:10068000B180FC01C280FC01D380FC01E480FC014C
:10069000F580FC010681FC0117812A2D3B2D4C2D94
:1006A0005D2D6E2D7F2D802F912FA4E60E94AA0331
:1006B000A22EB32EC42ED52EE62EF72E082F192FDC
:1006C00089819A81FC01A082FC01B182FC01C28275
:1006D000FC01D382FC01E482FC01F582FC0106836B
:1006E000FC0117830F900F90DF91CF911F910F9115
:1006F000FF90EF90DF90CF90BF90AF900895A1E270
:100700001A2EAA1BBB1BFD010DC0AA1FBB1FEE1F8B
:10071000FF1FA217B307E407F50720F0A21BB30BD6
:10072000E40BF50B661F771F881F991F1A9469F752
:1007300060957095809590959B01AC01BD01CF01AE
:1007400008952A0D3B1D4C1D5D1D6E1D7F1D801FD4
:10075000911F08950024A7FD00942A0F301D401D0D
:10076000501D601D701D801D901D08952A153B05AC
:100770004C055D056E057F05800791070895EE0F16
:10078000FF1F0590F491E02D0994AEE0B0E0EBEC92
:10079000F3E00C9474060D891E8986E08C831A831D
:1007A00009838FEF9FE79E838D83AE01475E5F4F86
:1007B0006F89788DCE0101960E94E8032F813885DC
:1007C000F801E20FF31F10822E96E4E00C949006DD
:1007D000ACE0B0E0EEEEF3E00C9466067C016B0159
:1007E0008A01FC0117821682838181FFBDC1CE017F
:1007F00001964C01F7019381F60193FD859193FFDA
:1008000081916F01882309F4ABC1853239F493FDDE
:10081000859193FF81916F01853229F4B70190E0B2
:100820000E94D005E7CF512C312C20E02032A0F4DB
:100830008B3269F030F4803259F0833269F42061F0
:100840002CC08D3239F0803339F4216026C022600B
:10085000246023C0286021C027FD27C030ED380F59
:100860003A3078F426FF06C0FAE05F9E300D11247E
:10087000532E13C08AE0389E300D1124332E20628F
:100880000CC08E3221F426FD6BC1206406C08C366C
:1008900011F4206802C0883641F4F60193FD859179
:1008A00093FF81916F018111C1CF982F9F7D955446
:1008B000933028F40C5F1F4FFFE3F9830DC083369C
:1008C00031F0833771F0833509F05BC022C0F80145
:1008D000808189830E5F1F4F44244394512C54011F
:1008E00015C03801F2E06F0E711CF801A080B180D4
:1008F00026FF03C0652D70E002C06FEF7FEFC501DA
:100900002C870E94C5052C0183012C852F77222E70
:1009100017C03801F2E06F0E711CF801A080B180A1
:1009200026FF03C0652D70E002C06FEF7FEFC501A9
:100930002C870E94BA052C012C852068222E830169
:1009400023FC1BC0832D90E048165906B0F4B70174
:1009500080E290E00E94D0053A94F4CFF50127FCA4
:10096000859127FE81915F01B70190E00E94D0053B
:1009700031103A94F1E04F1A51084114510471F7C3
:10098000E5C0843611F0893639F5F80127FF07C034
:1009900060817181828193810C5F1F4F08C06081EB
:1009A0007181072E000C880B990B0E5F1F4F2F765D
:1009B000722E97FF09C090958095709561957F4F35
:1009C0008F4F9F4F2068722E2AE030E0A4010E94D2
:1009D0000806A82EA81844C0853729F42F7EB22E09
:1009E0002AE030E025C0F22FF97FBF2E8F36C1F00C
:1009F00018F4883579F0B4C0803719F0883721F0C1
:100A0000AFC02F2F2061B22EB4FE0DC08B2D84609D
:100A1000B82E09C024FF0AC09F2F9660B92E06C0C9
:100A200028E030E005C020E130E002C020E132E003
:100A3000F801B7FE07C060817181828193810C5FEC
:100A40001F4F06C06081718180E090E00E5F1F4FF4
:100A5000A4010E940806A82EA818FB2DFF777F2E60
:100A600076FE0BC0372D3E7FA51450F474FE0AC0ED
:100A700072FC08C0372D3E7E05C0BA2C372D03C04E
:100A8000BA2C01C0B52C34FF0DC0FE01EA0DF11DDA
:100A90008081803311F4397E09C032FF06C0B394DF
:100AA000B39404C0832F867809F0B39433FD13C048
:100AB00030FF06C05A2CB31418F4530C5B18B32C37
:100AC000B31468F4B70180E290E03C870E94D0053F
:100AD000B3943C85F5CFB31410F43B1801C0312C0E
:100AE00034FF12C0B70180E390E03C870E94D0053C
:100AF0003C8532FF17C031FD03C088E790E002C09B
:100B000088E590E0B7010CC0832F867859F031FF5B
:100B100002C08BE201C080E237FD8DE2B70190E0B8
:100B20000E94D005A51438F4B70180E390E00E943C
:100B3000D0055A94F7CFAA94F401EA0DF11D8081F3
:100B4000B70190E00E94D005A110F5CF332009F441
:100B500051CEB70180E290E00E94D0053A94F6CFE2
:100B6000F7018681978102C08FEF9FEF2C96E2E11B
:100B70000C948206FC010590615070400110D8F77A
:100B8000809590958E0F9F1F0895FC0161507040D5
:100B900001900110D8F7809590958E0F9F1F0895B2
:100BA0000F931F93CF93DF93FB01238121FD03C09C
:100BB0008FEF9FEF28C022FF16C046815781248106
:100BC00035814217530744F4A081B1819D012F5F05
:100BD0003F4F318320838C93268137812F5F3F4F96
:100BE0003783268310C0EB01092F182F0084F1856D
:100BF000E02D0995892BE1F68E819F8101969F83D7
:100C00008E83812F902FDF91CF911F910F910895A7
:100C1000FA01AA27283051F1203181F1E8946F932D
:100C20006E7F6E5F7F4F8F4F9F4FAF4FB1E03ED0D3
:100C3000B4E03CD0670F781F891F9A1FA11D680F71
:100C4000791F8A1F911DA11D6A0F711D811D911DA4
:100C5000A11D20D009F468943F912AE0269F112419
:100C60003019305D3193DEF6CF010895462F47707D
:100C7000405D4193B3E00FD0C9F7F6CF462F4F70D8
:100C8000405D4A3318F0495D31FD4052419302D036
:100C9000A9F7EACFB4E0A6959795879577956795DC
:100CA000BA95C9F700976105710508959B01AC01DC
:100CB0000A2E06945795479537952795BA95C9F703
:100CC000620F731F841F951FA01D08952F923F92DE
:100CD0004F925F926F927F928F929F92AF92BF924C
:100CE000CF92DF92EF92FF920F931F93CF93DF93F8
:100CF000CDB7DEB7CA1BDB0B0FB6F894DEBF0FBE55
:100D0000CDBF09942A88398848885F846E847D84A1
:100D10008C849B84AA84B984C884DF80EE80FD80A3
:100D20000C811B81AA81B981CE0FD11D0FB6F89419
:100D3000DEBF0FBECDBFED01089510E0C5E3D0E0EA
:100D400004C0FE010E94BF032196C633D107C9F734
:040D5000F894FFCF45
:100D540023002600290053657475700A0025640A6F
:020D640000008D
:00000001FF
